:020000040200F8
:1020000000301240112200024B2200022521000262
:102010004F22000251220002532200020000000061
:10202000000000000000000000000000DD310002A0
:10203000572200020000000065300002AD320002AD
:102040005D2200025D220002913100023D2B000260
:102050002D2B0002D9320002C9320002B93200022F
:1020600019330002F52F0002852A0002992C000284
:10207000D12C00025D220002992A00027131000277
:10208000C1310002592C0002F9320002E93200028B
:10209000492C0002392C0002CD2A0002892C0002B2
:1020A000C52F00025D220002692C0002792C00027B
:1020B0006131000251310002413100020933000256
:1020C0002D2F00021D2F0002813100021530000269
:1020D00005300002D52F0002E52F00022530000256
:1020E0003530000245300002553000025D2200020A
:1020F0005D2200025D220002752A00020200023207
:1021000000600202DFF810D000F090F900480047AC
:1021100029E10102AFF30080EC0D002030B58047CB
:1021200030BD00BF1EF0040F0CBFEFF30880EFF3CB
:10213000098081694FF2B532C0F2012210470000D8
:1021400044F6206000BF401EFCD128472DE9FE5F09
:102150000746EFF31080EFF31181EFF31282EFF3F4
:1021600013830FB440F69830C2F20000224D056090
:10217000EFF30881EFF30982EFF31483EFF30384A5
:1021800041608260C3600461781E0DD0B81E05D026
:102190001A48016841F0010101600AE0184801682D
:1021A00041F00101016004E01548016841F00401BB
:1021B000016042F24110C0F200200047114841681E
:1021C0008268C368046981F3088882F3098883F30D
:1021D000148884F30388BFF34F8FBFF36F8F0FBC56
:1021E00080F3108881F3118882F3128883F31388B7
:1021F000BDE8FE5F704700BFBD210002040311402F
:10220000A8011040980B002040BA7047C0BA704730
:102210001348016811F0010F21F00101016009D09C
:102220001048016821F0020101600F4880470F4803
:10223000006800470B48016821F0020101600C486A
:1022400080470C4800470C480047FEE7FEE7FEE7E2
:10225000FEE7FEE7FEE7FEE7FEE7FEE7FEE700003B
:10226000100110400800004009580002980B00209F
:10227000515700022D24000229E101022DE9F0034B
:102280005FEA930C6FD000BF30F8024B31F8026B5D
:1022900030F8025B31F8027B14FB06F84FEA68481D
:1022A00015FB07F9A8EB694822F8028B14FB07F429
:1022B000641415FB06F504EB654422F8024B30F874
:1022C000024B31F8026B30F8025B31F8027B14FBF1
:1022D00006F84FEA684815FB07F9A8EB694822F8A9
:1022E000028B14FB07F4641415FB06F504EB65443C
:1022F00022F8024B30F8024B31F8026B30F8025BE7
:1023000031F8027B14FB06F84FEA684815FB07F921
:10231000A8EB694822F8028B14FB07F4641415FB40
:1023200006F504EB654422F8024B30F8024B31F815
:10233000026B30F8025B31F8027B14FB06F84FEABF
:10234000684815FB07F9A8EB694822F8028B14FBD3
:1023500007F4641415FB06F504EB654422F8024B00
:10236000BCF1010C90D113F0030304BFBDE8F003EE
:10237000704700BF30F8024B31F802CB30F8025BF7
:1023800031F8026B14FB0CF77F1415FB06F8A7EB72
:10239000684722F8027B14FB06F4641415FB0CFC5E
:1023A00004EB6C4C22F802CB5B1EE3D1BDE8F003DA
:1023B0007047000000F5005000B20028BCBF00F5D7
:1023C000004000B281090B4BA0EB8110400233F9B1
:1023D000112003EB410100B2C0F5004349885A4384
:1023E000121410FB01F000EB02400014400000B298
:1023F00070470000C448020281090B4BA0EB81101A
:10240000400233F9112003EB410100B2C0F5004353
:1024100049885A43121410FB01F000EB02400014EB
:10242000400000B270470000C4480202064C074D4D
:1024300006E0E06840F0010394E807009847103494
:10244000AC42F6D3FFF762FEBC520202DC5202023B
:102450002DE9F05F0546002092469B4688460646D9
:10246000814640241BE0284641464746224600F06C
:102470009EF853465A46C01A914110D31146184649
:10248000224600F085F82D1A67EB01084F462246D8
:102490000120002100F07CF817EB00094E41201EBE
:1024A000A4F10104DFDC484631462A464346BDE834
:1024B000F09F00000649074A0868504343F239027A
:1024C00010440860400870470149086070470000E8
:1024D000380400206D4EC64110B5431A934209D20C
:1024E0008318881803E010F8011D03F8011D521E1F
:1024F000F9D210BD40EA01039B0703D009E008C9E7
:10250000121F08C0042AFAD203E011F8013B00F8B8
:10251000013B521EF9D210BDD2B201E000F8012BEE
:10252000491EFBD270470022F6E710B513460A4653
:1025300004461946FFF7F0FF204610BD421C10F874
:10254000011B0029FBD1801A704730B504460020DA
:10255000034600E05B1C934203D2E05CCD5C401B71
:10256000F8D030BD30B50B460146002020220124B2
:1025700009E021FA02F59D4205D303FA02F5491B51
:1025800004FA02F52844151EA2F10102F1DC30BD67
:10259000202A04DB203A00FA02F100207047914023
:1025A000C2F1200320FA03F3194390407047202A18
:1025B00004DB203A21FA02F00021704721FA02F3ED
:1025C000D040C2F1200291400843194670472DE9DE
:1025D000FE4F804681EA0300C00F0C46009021F0B8
:1025E000004123F00045B8EB0200A94105D2404666
:1025F000214690461C460B46024623F000401043FD
:1026000047D0270DC7F30A00C3F30A510290401ABE
:10261000019040286BDAC3F3130040F4801B00984C
:10262000924620B10023D2EB030A63EB0B0B019817
:102630005946C0F140025046FFF7AAFF06460D4634
:1026400050465946019A00F07BF910EB08006141B1
:10265000002487EA115284EAE7731A4340D0009AB3
:1026600062B3019A012A4FEA075215DC001B61EBA5
:1026700002014FF0004202EA0752CDE90042001C7D
:1026800041F5801132462B4600F07BF903B0BDE8DE
:10269000F08F40462146F9E7001B61EB0201001C68
:1026A00041F5801300185B412018A2F5001747EB95
:1026B000030140EAD570B6196D4111E06D084FEA8B
:1026C000360645EAC0754FEA0752001B61EB02016E
:1026D000001C41F5801149084FEA300000195141B2
:1026E00032462B4603B0BDE8F04F00F03BB90098EE
:1026F000012240000023D0EB020263EBE07300985C
:1027000021464FEAE074B8EB000061EB0401E9E711
:1027100083F000435BE781F0004158E72DE9FE4F6D
:1027200081EA030404F0004421F0004100944FF0DA
:10273000000B23F0004350EA01045ED052EA030488
:102740005BD0C3F30A54C1F30A552C44A4F2F3340A
:102750000194A0FB0254C1F3130141F48011C3F3AF
:10276000130343F4801301FB024400FB034E840A6D
:10277000970A44EA815447EA8357A4FB0768029505
:102780008D0A05FB07854FEA932C04FB0C542705A3
:10279000029D4FEA065847EA1637B5EB08056EEB7F
:1027A000070C870E920E47EA811742EA8312A7FBB5
:1027B0000201B6EB0B0164EB00042B0D43EA0C3372
:1027C0005E1844EB1C50DA465146E7FB0201C5F3A4
:1027D00013044FEA0B3343EA14534FEA0432019CCB
:1027E00043EA0603A4F10C040294009CCDE900B472
:1027F00000F0C7F803B0BDE8F08F00200146F9E70C
:102800002DE9F04D81EA030404F0004B21F000456E
:1028100014464FF0000A23F0004150EA050220D090
:1028200054EA01021DD0C5F30A570246C5F313034B
:10283000C1F31300C1F30A5640F4801543F480132A
:10284000A7EB0608101BD64608F2FD3873EB05000F
:1028500002D308F1010801E092185B41B8F1000FC2
:1028600003DA00200146BDE8F08D00204FF480110E
:10287000064684460EE0171B73EB050705D3121BB3
:1028800063EB050306434CEA010C49084FEA3000AC
:1028900092185B4150EA0107EDD152EA030012D0D1
:1028A00082EA040083EA0501084305D0101BAB410E
:1028B00006D20122002306E000224FF0004302E08E
:1028C0006FF0010253101AEB06004CEB085110EBAD
:1028D0000A0041EB0B01BDE8F04D00F043B8C1F335
:1028E0000A52C1F3130140F2FF3341F480119A42BE
:1028F00002DA00200146704740F233439A42A2F2C6
:10290000334202DC5242FFF752BEFFF741BE0000E5
:1029100030B5041E71F1000404DB4FF00044404266
:1029200064EB0101141E73F1000405DB1C464FF03B
:102930000043524263EB0403994208BF904230BD0A
:10294000202A06DBCB17203A41FA02F043EAE07373
:1029500006E041FA02F3D040C2F120029140084360
:102960001946704710B5141E73F1000408DA401CB4
:1029700041F1000192185B411A4301D120F001009E
:1029800010BD2DE9F04D92469B4611B1B1FA81F28E
:1029900002E0B0FA80F220329046FFF7F9FD0446DB
:1029A0000F4640EA0A0041EA0B0153465A460843E3
:1029B00013D0114653EA010019D0C8F14002504625
:1029C000FFF7F5FD05460E46504659464246FFF7CD
:1029D000DFFD084305D0012004E020463946BDE86C
:1029E000F08D0020054346EAE0762C4337430A98F1
:1029F0006305E40AA0EB08000022FD0A44EA4754FC
:102A00000A3002D500200146E9E7010510196941A5
:102A1000DDE9084500196941BDE8F04DA2E770B550
:102A20008C1810F8015B15F0070301D110F8013B79
:102A30002A1106D110F8012B03E010F8016B01F800
:102A4000016B5B1EF9D12B0705D40023521E0DD458
:102A500001F8013BFAE710F8013BCB1A921C03E0A6
:102A600013F8015B01F8015B521EF9D5A142D8D3DE
:102A7000002070BD02482421C06807F065BB00003B
:102A8000000000200348016841F02001016001209E
:102A90001BF0EEBF0000134002480921C06807F098
:102AA00053BB0000000000201CF004FB054C064D49
:102AB0002068416A286888470028F9D11CF0A0FAEC
:102AC000F6E7000004000020140000200248102156
:102AD000C06807F039BB000000000020044800680F
:102AE0000122C0F308010920891E07F055BB000030
:102AF00004ED00E004480068C00503D103484068C5
:102B0000406B00477047000004ED00E0000000202B
:102B100004480068C00503D103484068806B004743
:102B20007047000004ED00E0000000200248012191
:102B3000C06807F009BB0000000000200248022125
:102B4000C06807F001BB00000000002010B5C3689A
:102B5000D9B280290FD98468E06800B101204B22E6
:102B600013A101F08FFBE16819B12069BDE81040A5
:102B7000084772B6FEE70446008A616982B2D8B29D
:102B8000124B1B68984706F0CDFE00280FD1E06875
:102B9000022806D004280AD1A069BDE8104006F03A
:102BA000BBBEA08BA169BDE8104006F0B3BE10BD4E
:102BB0004863695F696E7465726E616C5F7472619F
:102BC0006E73706F72742E6300000000400100206D
:102BD0001FB541680A2914D007DC09B105291FD1A6
:102BE00004B0BDE81040FFF7B1BF0B2919D00C2984
:102BF00016D1018AC268406904B089B2BDE81040AC
:102C000010470C491EC98DE81E00C1680191416939
:102C10000291008AADF80C001021684606F0BAFC5B
:102C20001FBD018A8AB24169C06804B0BDE8104086
:102C300008F066BBC032020202480E21C06807F0ED
:102C400083BA00000000002002480F21C06807F08E
:102C50007BBA00000000002002480B21C06807F08A
:102C600073BA00000000002002481221C06807F07B
:102C70006BBA00000000002002481321C06807F072
:102C800063BA00000000002002481121C06807F06C
:102C90005BBA00000000002070B50B4D686D400667
:102CA00011D52C6E402002F0D3FD286EA04328667B
:102CB000002C08D005480078400604D52046BDE821
:102CC00070401FF061BE70BD000011402C0000205C
:102CD0002DE9F04F814EDFF808B2DFF808828FB09F
:102CE0004FF0000A42F26C59B06D0A90706D4D467B
:102CF0000A9C0B902C402840A04208D098F8000075
:102D0000800604D508220AA905201FF0A3FE002C86
:102D100073D098F80000000604D5E1B2220A08201A
:102D20001FF014FE204602F093FD0027A946A006DE
:102D300002D5012002F0F8F9A00401D514F054FFE7
:102D400060077DD5D6F80C51002D7DD045EA0B05E6
:102D50002D1F049595F8C6008DF8180095F82600EB
:102D60008DF81900D5F8BC000590D5F8B800B5F875
:102D7000C620C3B28246D1B2032B02D0042B2FD17E
:102D800026E0052906D016291CD017291AD01829A3
:102D900026D117E05448016B0291097901F00F0127
:102DA00007291DD102994979890619D50021C6F84C
:102DB0000C11806B14F0F0FE4B480299103011F0AA
:102DC000ABFA21E00020C6F80C01D5F8C00019E0EC
:102DD0004649CAF30B2051F8200008B1172A0DD03C
:102DE000524604A94FF4003014F099FF47B300BFD6
:102DF00095F8B800032810D10DE06BE00021C6F86B
:102E00000C1140690FF014F90127524604A9780407
:102E100014F085FFECE711F0E9FA8FB1E00513D467
:102E2000756D05EA0905284602F012FD42F204001C
:102E300084432C434FF4A0722DA1C4F3002000E082
:102E400002E001F01FFA72E7600502D503201BF0D3
:102E50000FFE600615D5356E35B198F800004006B6
:102E600002D528461FF090FD280E800709D5D6F818
:102E70000C0130B140EA0B0010F8C01F41F0010115
:102E80000170E0051BD5C7B1049830F8681FADF894
:102E90001C104188ADF81A109DF81900814204D227
:102EA000ADF81A000020ADF81C00524604A94FF0FE
:102EB000021014F034FF600601D513F04BFE98F8B1
:102EC000000000067FF510AFE1B2220A09201FF0D2
:102ED0003DFD09E70FB0BDE8F08F00000000114094
:102EE000000010402C000020C0070020D00D002062
:102EF0006474626C652E6300074A131D5980116863
:102F000060F307011160106840F4007010601068F1
:102F10008005FCD4704700000804114002481C21C1
:102F2000C06807F011B900000000002002481B2112
:102F3000C06807F009B900000000002000F01F027F
:102F4000012191404009800000F1E020C0F880128A
:102F5000704700F01F02012191404009800000F1FC
:102F6000E020C0F800117047C906090E002806DAF3
:102F700000F00F0000F1E02080F8141D704700F110
:102F8000E02080F800147047024A114001430248D3
:102F90000160704780FFFF1F08ED00E000B589B0B9
:102FA000816803910021CDE9011004486946006859
:102FB000826903480068904709B000BD0400002002
:102FC0001800002002481421C06807F0BDB80000B6
:102FD0000000002002481521C06807F0B5B80000C5
:102FE0000000002002481621C06807F0ADB80000BC
:102FF0000000002002480721C06807F0A5B80000C3
:103000000000002002481E21C06807F09DB80000A3
:103010000000002002481D21C06807F095B800009C
:103020000000002002481F21C06807F08DB8000092
:103030000000002002482021C06807F085B8000089
:103040000000002002482121C06807F07DB8000080
:103050000000002002482221C06807F075B8000077
:103060000000002001484068806C004700000020FC
:103070002F492E48C1F890012E48C1F894014FF411
:103080000040086342F2412048632B48826942F0C5
:1030900080428261026922F07F7202F54002026181
:1030A000826922F4700202F580128261826942F420
:1030B0007022826182696FF30F02103282614A6A64
:1030C00022F4601202F500224A624A6A22F4F8529F
:1030D00002F500724A62826922F07C5202F1C85203
:1030E0008261D1F8602122F4FC0202F5B402C1F839
:1030F0006021016801680E2262F31F71016081681E
:10310000C90D21F0F00141F03002816862F3DE5117
:103110008160C168C168022262F38A11C1600168DE
:103120000168092262F34401016070470706020446
:10313000000010400103040500201040704700000B
:1031400002481721C06806F0FFBF00000000002001
:1031500002481821C06806F0F7BF000000000020F8
:1031600002481921C06806F0EFBF000000000020EF
:1031700002480821C06806F0E7BF000000000020F8
:1031800002482321C06806F0DFBF000000000020D5
:1031900002480021C06806F0D7BF000000000020F0
:1031A000014800F003B80000B8001040014608686C
:1031B0000A688242FBD10A688242F8D17047000057
:1031C00002480A21C06806F0BFBF000000000020CE
:1031D0000149487270470000D4000020014840684F
:1031E000406C00470000002010B54FF0804460683C
:1031F000400409D500F00CF8216811F00F0100D14E
:103200000121B0FBF1F010BD004810BD00366E0189
:103210000C48D0F8A801C00211D54FF08041086CCD
:103220000A6CC0F34500C2F3C53210FB02F0064A37
:10323000096CB2FBF0F0C1F3C7114843704700209E
:10324000704700000000104000366E014FF08041D2
:10325000012806D0022803D1C86820F08000C86089
:103260007047886820F48440886070474FF0804140
:10327000012806D0022803D1C86840F08000C86049
:103280007047886840F48440886070474FF0804100
:10329000012806D0022803D1C86840F08000C86029
:1032A0007047886840F484408860704701484068EF
:1032B000006C00470000002002480321C06806F0AF
:1032C00043BF00000000002002480421C06806F04F
:1032D0003BBF00000000002002480521C06806F046
:1032E00033BF00000000002002480C21C06806F037
:1032F0002BBF00000000002002480D21C06806F02E
:1033000023BF00000000002002481A21C06806F018
:103310001BBF00000000002002480621C06806F024
:1033200013BF0000000000200FB4054B10B503A927
:10333000044A029800F0FEF810BC5DF814FB00008F
:103340009D6000023C0400200FB4084B10B504A996
:1033500002AA039800F0EEF8044602A9002000F04B
:1033600097FE204610BC5DF814FB0000914000025F
:10337000014B024A00F0E0BA9D6000023C040020CC
:103380007047704770477047704770477047704785
:1033900002E008C8121F08C1002AFAD1704770471E
:1033A000002001E001C1121F002AFBD1704700007C
:1033B0002DE9FF5F82B00021DDE90430020DDDF868
:1033C00040B0034318D044F61050A2F2FF324243FB
:1033D0001514119801281FD0A5EB0B00401C5FEAC3
:1033E000000A4FF000064E4FDFF83891B0465046C5
:1033F00015D5CAF1000413E0119801244AA301284D
:1034000001D16FEA0B010298119AC0E90031C0E9BD
:10341000024206B0BDE8F09FCBF10000DFE70446B2
:103420000021404A491842EB0450CDE9001012E057
:10343000E00707D032463B4640464946FFF76EF963
:103440008046894632463B4610461946FFF766F9E4
:1034500006460F466410002CEAD1DDE90401DDE9DF
:103460000023BAF1000F06DAFFF758F942464B463F
:10347000FFF754F905E0FFF7C3F942464B46FFF763
:10348000BFF904460E460022284BFFF741FA03D845
:103490004FF0FF30014607E00022254B2046314621
:1034A000FFF795F8FFF71BFA102409E0002C0ADB60
:1034B0000A220023FEF7CCFF039B30321A55641E0C
:1034C00050EA0102F2D1641C039AC4F111031444BE
:1034D000119A012A03D0012208430DD10AE00843C2
:1034E00004D000204FF0110B119072E7A3EB0B05F5
:1034F0006D1E0DE05B4504DD4FF0000205F1010596
:1035000004E003DA4FF00002A5F10105002AECD037
:1035100002981199C0E90231C0E9004579E700003D
:10352000000014400000F03F300000000000F043B5
:103530000000E03F2DE9FF4F8DB00F460546002605
:1035400006E025280BD0DDE90F1290476D1C761C94
:1035500028780028F5D111B03046BDE8F08F00245E
:10356000A246A1460122E94900E0044315F8013FC3
:10357000203B02FA03F00842F7D128782A2810D01D
:103580006FF02F022878A0F13001092914D80AEB36
:103590008A0102EB410144F0020400EB010A6D1CB8
:1035A000F0E701CF5FEA000A03D544F40054CAF102
:1035B000000A44F002046D1C28782E2817D115F853
:1035C000010F44F004042A280ED06FF02F0228784F
:1035D000A0F1300109290AD809EB890102EB410168
:1035E00000EB01096D1CF2E757F8049B6D1C28786D
:1035F0006C280FD006DC4C2817D068280DD06A281C
:1036000014D104E0742810D07A280FD10DE044F4CE
:1036100000140AE044F4801401E044F44014697892
:10362000814202D104F580146D1C6D1C28786E282F
:103630001ED00CDC632830D004DC00288BD0582846
:1036400011D19FE0642867D069280CD164E0732809
:103650002DD004DC6F2872D0702804D194E0752836
:103660006ED078286DD0DDE90F129047761C4BE1C3
:10367000C4F30250022806D0032809D0042801CF41
:1036800009D0066040E101CFF117C0E900613BE1DC
:1036900001CF068038E1067036E117F8040B8DF88B
:1036A000000000208DF80100EB46012003E057F8F0
:1036B00004BB4FF0FF3061074FF0000102D40DE072
:1036C00008F10101884649450FDA8045F8DB1BF80F
:1036D00008100029F4D108E008F101018846814270
:1036E000FADB1BF808100029F6D1DDE90F23AAEB5D
:1036F00008008146214600F09DFC304400EB08069E
:1037000004E0DDE90F121BF8010B9047B8F1010846
:10371000F7D221464846F2E00A21C4F302524FF0A4
:10372000000B0891022A04D001CFC117032A09D047
:103730000AE0FF1D27F00707F7E8020108E02CE088
:103740001EE01FE000B2C117042A01D140B2C11728
:10375000021E71F1000206DA0023D0EB030063EBD6
:1037600001012D2202E0220504D52B228DF8242010
:10377000012203E0E20701D02022F7E7904653E060
:103780000A210BE0102109E010214FF0000B44F05A
:1037900004044FF00809089103E008214FF0000BE2
:1037A0000891C4F30252022A04D001CF0021032A57
:1037B00006D006E0FF1D27F00707F7E8020103E047
:1037C00080B2042A00D1C0B24FF0000822072BD5E6
:1037D0002A78702A07D0DDF820C08CF0100C5CEA43
:1037E0000B0C05D00EE040228DF82420012208E0C9
:1037F00050EA010306D030238DF824308DF82520BF
:1038000002229046089B83F0080353EA0B030BD176
:1038100050EA010201D1620706D530228DF824203A
:103820004FF00108A9F101092A78582A04D038A2DA
:103830000B9208AA0A920BE03AA2F9E75B46089AB3
:10384000FEF706FE0B9B9B5C0A9A521E0A921370AF
:1038500050EA0102F2D10A98ADEB000000F1200B12
:10386000600702D524F4803401E04FF00109D94506
:1038700002DDA9EB0B0000E0002000EB0B0141444E
:103880000890AAEB010AE00306D4DDE90F232146E4
:10389000504600F0CFFB06444FF0000908E009A9AC
:1038A00011F80900DDE90F12904709F10109761CB2
:1038B000C145F4DBE0030CD5DDE90F23214650467A
:1038C00000F0B8FB064404E0DDE90F123020904719
:1038D000761C0899481E08900029F5DC08E00A9833
:1038E0000A990078491C0A91DDE90F129047761C6D
:1038F000BBF10001ABF1010BF1DC21465046DDE9E3
:103900000F2300F073FB06446D1C21E6092801001B
:103910003031323334353637383961626364656645
:103920000000000030313233343536373839414207
:1039300043444546000000002DE9FF4F95B09A46EC
:10394000884606460025EEE1252877D10024274643
:10395000F94A0121039400E0044316F8013F203B9B
:1039600001FA03F01042F7D130782A2811D06FF015
:103970002F033078A0F13002092A16D8039A44F0B8
:10398000020402EB820203EB42021044761C039015
:10399000EFE758F8042B0392002A03DA504244F46C
:1039A0000054039044F00204761C30782E2816D17F
:1039B00016F8010F44F004042A280DD06FF02F02EE
:1039C0003078A0F13003092B09D807EB870302EB0D
:1039D0004303C718761CF3E758F8047B761C30784D
:1039E0006C280FD006DC4C2817D068280DD06A2828
:1039F00014D104E0742810D07A280FD10DE044F4DB
:103A000000140AE044F4801401E044F44014727895
:103A1000824202D104F58014761C761C3078662828
:103A20000BD013DC582877D009DC002875D0452846
:103A3000F6D04628F4D047281AD193E118E063283D
:103A400035D0642879D0652812D18BE1702873D0E5
:103A500008DC6728F1D069286FD06E280DD06F2858
:103A600006D1ACE073282CD0752874D0782853D0B8
:103A70005246179990476D1C54E1C4F30250022836
:103A800009D003280DD0D8F8001004280DD00D60FF
:103A900008F1040846E1D8F80010EA17C1E900521D
:103AA000F6E7D8F800100D80F2E70D70F0E718F88F
:103AB000041B8DF8001000208DF80100EB4601205A
:103AC00003E058F804BB4FF0FF3061074FF00001EE
:103AD00002D40DE009F101018946B9420FDA8145AE
:103AE000F8DB1BF809100029F4D108E009F1010105
:103AF00089468142FADB1BF809100029F6D10398A8
:103B00005346A0EB090721463846179A00F0A9FA58
:103B1000284400EB090507E044E008E10DE01BF84C
:103B2000010B524617999047B9F10109F7D2534654
:103B300021463846179AF2E039E00A21C4F30252CE
:103B40004FF0000B0091022A06D058F8040BC11761
:103B5000032A09D00AE023E008F1070020F0070259
:103B6000F2E80201904605E000B2C117042A01D133
:103B700040B2C117002906DA0A460021404261EB33
:103B800002012D2202E0220504D52B228DF804200B
:103B9000012203E0E20701D02022F7E7914657E037
:103BA0000A2100E010214FF0000B00910BE01021E2
:103BB0004FF0000B44F004040827009103E00820B4
:103BC0004FF0000B0090C4F30252022A05D058F8BF
:103BD000040B0021032A08D008E008F1070020F0B8
:103BE0000702F2E80201904603E080B2042A00D105
:103BF000C0B24FF0000922072AD53278702A07D0C8
:103C0000DDF800C08CF0100C5CEA0B0C05D00EE067
:103C100040228DF80420012208E050EA010306D07A
:103C200030238DF804308DF8052002229146009B48
:103C300083F0080353EA0B030AD150EA010201D1D1
:103C4000620705D530228DF804204FF001097F1E50
:103C50003278582A04D039A20C920CAA02920BE0B6
:103C60003BA2F9E75B46009AFEF7F2FB0C9B9B5CDC
:103C7000029A521E0292137050EA0102F2D1029887
:103C800004A9081A00F1200B600702D524F480343F
:103C900000E001275F4502DDA7EB0B0000E00020FC
:103CA00000EB0B01009003984944401A0390E00395
:103CB00006D453462146179A039800F0D2F90544DA
:103CC000002706E001A85246C05D179990476D1C79
:103CD0007F1C4F45F6DBE0030CD553462146179A6F
:103CE000039800F0BEF9054404E0302052461799CD
:103CF00090476D1C0099481E00900029F5DC08E0F3
:103D00000298029952460078491C029117999047EF
:103D10006D1CBBF10001ABF1010BF1DC5BE100F0CC
:103D200077F90544761C307800287FF40DAE19B081
:103D30002846BDE8F08F00000928010030313233F9
:103D400034353637383961626364656600000000D7
:103D500030313233343536373839414243444546C1
:103D600000000000600700D4062708F1070020F0DB
:103D70000700F0E80223804603F0004C5FEA0C00E5
:103D800001D097A009E0200501D596A005E0E00745
:103D900001D095A001E0AFF24C001390307823F0F1
:103DA000004365280CD006DC452809D046281DD0E4
:103DB00047287FD13BE0662818D067287AD136E0C3
:103DC0000021112F01DB112000E0781CCDE900015A
:103DD00004A90CA8FFF7ECFADDE90D010C9A4FF0ED
:103DE000000B07F10109109200914EE04FF00040E6
:103DF0000097CDE9011004A90CA8FFF7D9FADDE975
:103E00000D020C9B0F994FF0000B914610930092FE
:103E100011B9791C00EB0109B7EB090003D4C0F11B
:103E2000FF3B07F10109A9EB0700019042E0012FD8
:103E300000DA01270021112F01DD112000E03846B2
:103E4000CDE9000104A90CA8FFF7B2FADDE90D01E4
:103E50000C9A00914FF0000BB946109221070FD435
:103E6000009A4A4503DA914601E0A9F10109B9F146
:103E7000010F05DD109AA9F10101515C3029F4D040
:103E8000B84202DA10F1040F03DA0121CDE9011082
:103E900010E0002803DC8344A9EB000102E0411C90
:103EA000494500DD8946A0EB0B00401C01904FF016
:103EB00000400290200705D40198484502DB4FF0EE
:103EC000FF30019000208DF84B0002980DF14B0758
:103ED000B0F1004F25D002200C902B200D900298BD
:103EE00000280CDA404202902D200D9007E00A21B4
:103EF0000298FEF737FB3031029007F8011D0C994C
:103F0000481E0C900029F2DC02980028EFD1791E9F
:103F10000D980870307800F0200040F0450007F858
:103F2000020D11A8C01BC01D02901398007800B1AB
:103F3000012000EB0901019801EBE07102980144B6
:103F40000398401A401E0390E00306D453462146CE
:103F5000179A039800F085F805441398007818B173
:103F60005246179990476D1CE00323D553462146CE
:103F7000179A039800F075F805441BE0BBF1000F99
:103F800007DB0098584504DD1098179910F80B00CE
:103F900001E0179930205246904701980BF1010B30
:103FA000401E05F10105019004D12E2052461799BB
:103FB00090476D1CB9F10001A9F10109DEDC05E0B3
:103FC00017F8010B5246179990476D1C0299481E2D
:103FD00002900029F4DC53462146179A03989EE686
:103FE0002D0000002B000000200000002DE9F04112
:103FF000044600251E461746880404D405E03946C9
:104000002020B0476D1C641EF9D52846BDE8F0811C
:104010002DE9F041044600251E461746880404D4C5
:1040200005E039462020B0476D1C641EF9D52846AE
:10403000BDE8F0812DE9F041044600251E4690467A
:10404000C80301D5302700E02027880404D505E007
:1040500041463846B0476D1C641EF9D52846BDE878
:10406000F0812DE9F041044600251E469046C80324
:1040700001D5302700E02027880404D505E041461B
:104080003846B0476D1C641EF9D52846BDE8F0815E
:104090000A68531C0B601070704700002DE9F05F38
:1040A000064600880B46C0F30B00834605F0E0F996
:1040B0000400707875884FEA10170AD005F10408DB
:1040C000984509D02A1DBDE8F05F19463448FFF72E
:1040D0005BB9594633A01DE001F0BEF907F00301BA
:1040E000002740F2031A6063012903D002292BD074
:1040F0003BA00FE0A08F58B14119B1F5827F0DD3DD
:104100005B4652464648FFF73FF9A787BDE8F09F58
:10411000594644A0BDE8F05FFFF736B9A16B2A46C7
:104120000844311D0E30FEF7D7F9A08F284481B224
:10413000A187E08F083081422ED3A06B0E3005F0AE
:1041400003FAE787A78727E0A08F20B159464448A4
:10415000FFF71AF9A787B788381D8146854205D32E
:104160001FFA88F1304605F0EFF915E0FF2D07D969
:104170005B465246291DBDE8F05F3A48FFF704B997
:10418000A06B2A1D31460E30FEF7A6F9A4F83C803C
:10419000E787A16BA1F81090BDE8F05F05F008BDBE
:1041A000804F02026863692E633A2061636C5F6826
:1041B000616E646C65722063616C6C656420776904
:1041C0007468206E6F6E2D726567697374657265B1
:1041D000642068616E646C65202575210000000014
:1041E0006863692E633A2061636C5F68616E646C1A
:1041F00065722063616C6C656420776974682069FE
:104200006E76616C6964207061636B657420626FA7
:10421000756E6461727920666C6167732025750024
:104220003C50020241434C20436F6E742046726141
:10423000676D656E7420627574206E6F206669729A
:10424000737420667261676D656E7420666F72208C
:1042500068616E646C65203078253032780000002B
:104260002C4F02029050020210B505494FF6FF7321
:1042700002E084788C54C01C02889A42F9D110BDA7
:104280000000124010B50B46002803D11146184615
:1042900007F050FE10BD70471CB506498C68002C15
:1042A00007D0002100910191B0F806010B460322CE
:1042B000A0471CBD3400002070B50D46002821D158
:1042C0000A2D1FD2104C4FF4947654F8250020B9D3
:1042D000304600F0D5FF44F82500040012D03146E6
:1042E0002046FEF720F9A4F8065104F5807128460F
:1042F00003F004F807F002F8A4F802014FF0FF30D1
:10430000A4F8080170BD00008C040020F8B5164622
:10431000028A069F521A94B2C288D2050AD50B4A65
:1043200055683DB1009300890A4601463346384638
:10433000A847F8BD9C4200D91C464069224601446A
:104340003046FEF7C9F82046F8BD000034000020D2
:10435000042106F0D1B8042107F0E0B80249086052
:104360000421024807F050B840000020D148000264
:10437000024948600421024807F046B84000002086
:10438000D1480002042106F0B7B8042107F0C6B8EE
:1043900000B58BB0D0F82401009023E0684600F00F
:1043A00035FABDF8081000291ED0BDF806200FA070
:1043B000FEF7E6FFBDF806008005039808D506A9BC
:1043C0001BF0EEF806A81EF06DFD014611A001E0FD
:1043D000018811A0FEF7D4FFBDF8101010A0FEF761
:1043E000CFFF00980028D9D10BB000BD48616E64A2
:1043F0006C653A203078253034782C20666C616703
:10440000733A203078253034782C20757569643AF9
:1044100020000000257300002530347800000000E3
:104420002C2076616C75655F6C656E3A2025752C65
:104430002076616C75653A2000000000064A30B4B1
:104440001468002C06D00B46A4460246002130BC5E
:104450000420604730BC7047480000207CB51446FB
:10446000042819D120783E283FD016DC052853D0E7
:10447000082801D030280FD1B2F80350284600F0A8
:10448000CBF8040008D028461BF0FDFF04F8FD0F10
:1044900028461BF0B3FC60707CBDD72859D0D828C3
:1044A00048D0DA28F8D1608800F0B6F80500F3D0DB
:1044B000B5F8060104F0DCFF0600EDD02079317A72
:1044C0008842E9D16946601D1BF07CF8062231461E
:1044D0006846FEF73AF80028DED1E07A85F8FF005A
:1044E000B5F80601FFF751FF7CBDA078012801D087
:1044F0000A28F9D1D41C9188D078FFF7DDFEB4F8F2
:10450000010000F089F80500EED0B4F801001CF0BD
:1045100023FCA5F808017CBDB2F80340204600F05A
:104520007BF80028F7D000F0B1FE1049002041F8D8
:1045300024007CBD608800F06FF80500F9D0B4F865
:104540000B0001B2A5F8081109A0FEF71AFF2846D2
:1045500008E0508800F060F80028EAD04FF0FF3102
:10456000A0F8081100F096FA7CBD00008C04002031
:10457000534D5F4556454E545F4944454E5449544A
:10458000595F5245534F4C56494E475F535543432D
:104590004545444544206964202575003EB50C46D8
:1045A0008DF8080000208DF809200090019002236A
:1045B00002AA0421204607F0ADF93EBD7FB50DF1FA
:1045C000200C14469CE864008DF80800ADF8093012
:1045D000ADF80B20ADF80D10CDE90056072302AA67
:1045E0000421204607F096F97FBD70B515000C46F2
:1045F00003D0D0F82401206008E0002070BD2046E0
:1046000000F004F92089A84203D020680028F6D1E0
:1046100070BD012070BD00000A2803D2024951F884
:1046200020007047002070478C0400202DE9FF41D6
:104630000F7815460024B0F800214E1DBC460E2F01
:1046400074D00BDCA7F102070B2F15D2DFE807F0BF
:104650001C142E1438144B145C146300182F6FD0E4
:1046600006DC102F70D0122F7FD0162F04D181E0DE
:10467000522F68D0D22F66D0614646A0FEF780FE4A
:1046800004B02046BDE8F081B1F80110B0F8022175
:104690008A4202D9A0F8001101E0A0F80021032409
:1046A0001C70B0F80001A3F80100E9E71C46B1F85E
:1046B00003300093B1F80130214603F0D3FB10E042
:1046C0001C46ED1FB1F80570B1F80360CB1DADB20B
:1046D000CDE90253CDE90067B1F80130214603F07E
:1046E0002DFB0446CCE70C461946072D01D80223C2
:1046F00000E01023B4F80350CDE900530296B4F85B
:10470000013003F08FFDECE71C46B1F80130214683
:1047100003F0A4FEE5E71C46B1F803300093B1F8BE
:104720000130214603F074FCDBE7FFE71C46491C1F
:104730006D1E0091C5F34F03214603F01DFED0E727
:104740001DE001E011E01FE00C461946072D01D8DD
:10475000022300E01023B4F80350CDE90053029681
:10476000B4F8013003F0C4FCBBE700922A4603F022
:1047700001FFB6E700922A4603F0ECFBB1E7009296
:104780002A4603F0A9FAACE700922A4603F0C2FEDB
:1047900076E70000556E68616E646C656420415474
:1047A0005420436F6D6D616E643A20253032582C71
:1047B00020444154413A20001CB50B4B1C68002C8E
:1047C00010D0B6238DF8003005238DF801308DF818
:1047D0000200ADF80310ADF80520072300216A465A
:1047E0000420A0471CBD00004800002010B580B286
:1047F000FFF712FF002808D0B0F80A21B0F8061120
:10480000BDE810409120FFF7D7BF10BD10B501687B
:104810000A8882806AB14B88C3808C8804818C1D91
:10482000C4609B050CD5A2F11603038201F11603A7
:104830000BE00021C1800181C1600182416106E07D
:10484000A2F10803038201F10803114443610160EE
:1048500010BD70B5044600890D4600281BD0022A01
:1048600008D0E08880050BD51022E068FDF76DFECA
:1048700080B111E009882046BDE8704000F00EB814
:10488000084605F0E5FC002805D0E168A8890988FC
:10489000884201D1012070BD002070BD70B5044672
:1048A00000890D46002810D0E0888005E06808D512
:1048B00005F0CEFC002808D0E0688089A84203D02B
:1048C00004E00088884201D1012070BD002070BD45
:1048D0002DE9F041194C06461F4615468846042826
:1048E00009D0082E28D12878C00720D0D4F800C0DD
:1048F0001FE03046E047287878281DD1D4F804C05E
:10490000BCF1000F08D03B462A4641463046E047FE
:1049100004F0AAFC00280FD02468002C0CD03B46E1
:104920002A4641463046A446BDE8F0416047D4F8E7
:1049300004C0BCF1000FDCD1BDE8F08140000020D4
:104940002DE9F0410F461546044601461E461278F1
:1049500028A0FEF716FD042C0CD0082C48D13846B0
:10496000FFF75AFE040043D029781E2909D05229A6
:1049700019D01FE0287878283AD1BDE8F04100F03E
:1049800011B9B4F80A01A8B104F5867000F066FD0B
:10499000B4F80A210020A4F80A01B4F80611BDE811
:1049A000F041FFF709BF32462946BDE8F041002338
:1049B000FFF73CBEFB2E06D93246BDE8F041FB2393
:1049C0001948FEF7DEBC227822B1BDE8F041174855
:1049D000FEF7D7BC01202070A4F8046132462946B6
:1049E000A01CFDF779FD2046BDE8F04100F052B86B
:1049F000BDE8F0816174745F7061636B65745F68BA
:104A0000616E646C65723A20747970652030782527
:104A10003032782C207061636B65745B305D2030C0
:104A20007825303278000000184E0202CC4D020288
:104A300010B5B0F80001029CC01E80B21970A3F836
:104A40000120844200D8204610BD1FB514468DF8C1
:104A50000800069AADF80930ADF80B20ADF80D103E
:104A6000002000900190072302AA0421204606F0AE
:104A700051FF1FBD3EB50C468DF80800ADF809206A
:104A8000002000900190032302AA0421204606F092
:104A900041FF3EBD2DE9FF410446017824A0FEF709
:104AA00070FC207801282DD1A078D22808D00320CE
:104AB0002070B4F8060104B0BDE8F041FFF765BC12
:104AC0001BF08CFB0027E0B1B4F804010F2818D3C9
:104AD000B4F806011BF078FF002813D1B4F90801DF
:104AE00007F0CAF805000CD0B4F80411A4F10A00CC
:104AF0000E58696C324611A0FEF743FC686CB04258
:104B000002D92770BDE8FF8102202070B4F803208D
:104B10001749601DCDE90006CDE90214B4F804017F
:104B2000A1780F3883B205F134001BF061FBE9E78F
:104B30006174745F72756E3A20256400415454208C
:104B40005369676E65642057726974652C2044420E
:104B500020636F756E7465722025752C20706163FB
:104B60006B657420636F756E746572202575000027
:104B7000354E0002FFF706BC0EB50B21CDE9002330
:104B80008DF80810012302AA042106F0C3FE0EBD11
:104B900000B5FFF741FD10B1B0F8000100BD1720CE
:104BA00000BD00002DE9F8430025144F144EA8461F
:104BB00057F82540E4B1207803280BD1204600F0B7
:104BC000A7F838B1607898B1B4F80601BDE8F843A9
:104BD000FFF7DBBB607858B10AA084F80180006859
:104BE0000090346824B1022300216A460420A047C3
:104BF0006D1C0A2DDCD3BDE8F88300008C04002076
:104C000048000020B70000002DE9FE431F4616466D
:104C10000D468046FFF700FD040005D0B4F80A01F8
:104C200020B19020BDE8FE835920FBE74046FFF706
:104C3000A9FB88B102AB2A461D2120460097FFF749
:104C4000F7FECDE90060032302AA0421404606F0E6
:104C500061FE060002D014E05720E3E7A4F80A51F1
:104C600004F5867042460849044600F029FC47F2E4
:104C7000305240F28241204600F00EFC204600F007
:104C8000E3FB3046CEE70000ED47000270B5054675
:104C90000B480A4C0E46446004F0BAFA0848083043
:104CA00044601AF041FE0748FFF762FB284600F017
:104CB000B5F83046BDE8704000F0B6B85D4400027B
:104CC0004C000020414900022DE9FE431E461546D6
:104CD0000F468046FFF7A0FC040014D04046FFF7C3
:104CE00051FB90B102AB3A461B2120460096FFF7DC
:104CF0009FFECDE90050032302AA0421404606F09E
:104D000009FEBDE8FE835920FBE75720F9E70000C4
:104D10002DE9FC412F4E002707700446B0F804210E
:104D20003346811CFFF782FC0546A0F57F40FF3823
:104D300023D0042D0FD3307801280CD130790828E6
:104D400009D194F8FE0030B1B4F806011BF07DF8EB
:104D500078B1012811D085B100970197B4F8060108
:104D60002B463246042106F0D5FD3078032807D0C3
:104D70002DE0B4F806011CF0DFFA0020BDE8FC814C
:104D8000154AB4F80611B4F80001156875B1B522DA
:104D90008DF8002004228DF80120ADF80210ADF846
:104DA0000400062300216A460420A847B4F806013F
:104DB00000F084F809480078C00708D0B4F8000172
:104DC0000022001D81B2B4F8060101F0CDFC0120E3
:104DD000D4E7000030060020480000205C000020DE
:104DE00001490860704700004800002010B50246E5
:104DF000FFF712FC002806D001214170BDE81040E9
:104E00001046FFF7C2BA10BD10B50C46FFF704FC00
:104E1000002801D0C0F8244110BD000001494860BD
:104E2000704700003400002001498860704700008E
:104E3000340000207CB5044600780A4602280ED1D2
:104E4000694610461AF0BBFBB4F80411A01F0144D8
:104E500008226846FDF779FB10B1002020707CBD68
:104E6000B4F80411A4F10A000E58B4F9080106F0D0
:104E700003FF050001D0012000E00020ED2207A182
:104E8000FFF700FA45B1761C6E6403202070B4F879
:104E90000601FFF77AFA7CBD72B6FEE76174745FB3
:104EA0007365727665722E63000000000A68826581
:104EB0004968C1653521017002F0B4BB70B5054683
:104EC00002F0FAFE04000BD02846FFF7A5FB0028ED
:104ED00006D0E28AB0F800118A4202D9A0F8002177
:104EE00070BDE18270BD0000F8B50446C0880E4672
:104EF000C0050BD506484568002D07D0002000905E
:104F00000346024621893046A8472082F8BD0000AA
:104F1000340000207CB50E46C98804460D0B00D035
:104F20006D1C94F8FD2094F8FE00CDE9000294F881
:104F3000FF302A461048FEF723FAF088410502D5D3
:104F400094F8FE1079B1000502D594F8FF0060B125
:104F5000002D02DD94F8FD0048B194F8FD00A84250
:104F600007DA0C207CBD05207CBD08207CBD0F200D
:104F70007CBD00207CBD00005C4D02023EB50C46AD
:104F80008DF808000699ADF80920CDE90013032338
:104F900002AA0421204606F0BDFC3EBD2DE9F047E3
:104FA000994617460E460546DFF84C8011E0A819D1
:104FB00000EBD070441049462046B847404502D126
:104FC000A0B2BDE8F08702D904F1010501E0A4F127
:104FD0000106B542EBDD49463046B8474446A0429B
:104FE00001D3B0B2EDE749462846B847A04200D207
:104FF0006D1CA8B2E5E7000080841E000622FDF7C4
:10500000A4BA0A68026089888180704710B50C498B
:10501000002203463A24985C000900F052FB087015
:10502000985C00F00F0000F04CFB48708C70C91CBD
:10503000521C062AEFDB002001F8010C004810BDCD
:10504000D90400200844008840BA70474218405CE8
:105050005378528852BA63F31F4242EA00607047A5
:10506000130A4354491C89B242547047130E4354E7
:10507000491C89B2130C4354491C89B2130A435486
:10508000491C89B24254704710B512F031FC80F0CF
:10509000010010BD10B519F07FFA022801D30120DC
:1050A00010BD002010BD000010B50446FDF722FD24
:1050B00003480188A1430180BDE81040FDF728BDE9
:1050C000C003002010B503F003FCBDE81040012030
:1050D00000F008B810B5012100F086FCBDE81040D2
:1050E00005F016B810B50446FDF704FD0348018825
:1050F00021430180BDE81040FDF70ABDC003002038
:1051000003480078C00701D119F080BB7047000048
:10511000C003002002480068816A0248006808470E
:10512000040000201400002010B504460E4800784A
:10513000C00718D0FDF7DEFC4CB103210B4819F075
:10514000B1F803F0C7FB11F04FFD0DF039F9012064
:10515000FFF7AAFF12F09EFD032019F089FCBDE8BD
:105160001040FDF7D5BC10BDC00300206100030056
:1051700070B50D480088A0B912F09EFC40F2E245DF
:105180000446A8420DD30948406D50B919F0B8F94A
:1051900038B919F04BFDA84203D3A04200D32046F2
:1051A00070BD002070BD0000C00300200000114051
:1051B00001490860704700005C0000200268134647
:1051C00002E08A4204D01268002AFAD10B60016022
:1051D000704702E08A4205D010460268002AF9D1E1
:1051E0000A6001607047006808B100207047012024
:1051F000704704E0884201D1012070470068002810
:10520000F8D170470268816832B14068006888420E
:1052100000D1086808B9704709B101207047002023
:1052200070470022C0E90021096881607047016869
:1052300051B141680A6881688A4203D141600968B6
:10524000816003E0826001E00121016080687047B5
:1052500081680968816042681160002101607047BF
:105260004FF0FF3351B107E002688A4203D1096869
:1052700001600020704710460028F5D1184670479D
:1052800001490968C96A0847040000200149096802
:10529000096B084704000020FFF7F8BF7820FFF7EC
:1052A000EFBF10B50446806B06F087FD2046BDE8D1
:1052B0001040FFF7EBBF70B59820FFF7E1FF040047
:1052C0000CD040F2111006F0ABFD050008D098217B
:1052D0002046FDF728F92046A56370BD002070BD6B
:1052E0002046FFF7D3FFF9E77047FFF7CFBF542001
:1052F000FFF7C6BFFFF7CABF1420FFF7C1BF2DE9F4
:10530000F04106460020984617460C460546306098
:1053100005E02146304600F007F844446D1CBD42CC
:10532000F7DBBDE8F081000030B40268134607E007
:105330008B4204D1024630BC04A0FEF723B81B68A0
:10534000002BF5D10A60016030BC70476274737441
:1053500061636B5F6D656D6F72795F706F6F6C5FAE
:10536000667265653A20626C6F636B2025702066FB
:105370007265656420747769636520666F7220705A
:105380006F6F6C2025700000016819B10A68026017
:105390000846704700207047FFF778BF0C20FFF7E2
:1053A0006FBF000000B589B00DF1080C01900648F0
:1053B000006805928CE80B00044909688A6969460F
:1053C000904709B000BD0000180000200400002034
:1053D00013460A4601460A20FFF7E4BF13460A4671
:1053E00001460C20FFF7DEBF38B5154D286890F850
:1053F000F40008B1552038BD4FF0FF30ADF8020081
:10540000ADF800000AE0684604F082F80446C0885F
:10541000162104F0ABF8204604F000FD684604F0C5
:1054200057F80028EFD1012004F0A6FB054804F04E
:1054300055F90028DFD12A68012182F8F41038BD1F
:1054400080300202683102020249406909684968F5
:1054500008470000040000200020704710B50446F3
:10546000406928B103490968C9688847002060611C
:10547000002010BD0400002070B5064D04464069B0
:10548000296889688847296860694968BDE870406B
:10549000084700000400002070B5044681600548FC
:1054A0001546054A0068214603682846984760610A
:1054B00070BD0000040000209D2F000201617047B4
:1054C000C0E9031270470000024940690968896811
:1054D00008470000040000202DE9F041074611486C
:1054E00015460E46046898463888B4F8E42034F827
:1054F000E21F00F0A1F9388062882188308800F02E
:105500009BF93080E288A188288800F095F92880EE
:1055100062892189B8F8000000F08EF9A8F800002F
:10552000BDE8F0818030020270B50C00054601D064
:10553000012000E000206A2206A1FEF7A3FE284613
:1055400000F034F810B100206C6020602868206002
:105550002C6070BD6C6973745F62617369632E63E4
:105560000000000070B50C00054601D0012000E0ED
:105570000020532207A1FEF785FE284600F016F80A
:1055800008B12C6001E06868046000206C60206055
:1055900070BD00006C6973745F62617369632E6330
:1055A000000000000021016041607047006808B100
:1055B0000020704701207047006808B10020704744
:1055C00001207047016819B10A68026012B103E056
:1055D0000022FAE7002242600846704770B505468F
:1055E00000680C4600B10120C32209A1FEF74AFE63
:1055F000206800B10120C42205A1FEF743FE6968BE
:10560000206808606068686000202060606070BD8D
:105610006C6973745F62617369632E6300000000DC
:105620000448D0F8A81141F00201C0F8A81118F000
:10563000F7BD00000000104070B503460020024690
:10564000012513F80240002105FA01F6344201D089
:10565000401C80B2491CC9B20829F5D3521CD2B2F1
:10566000052AEED370BD70B50446008919F0E2FF3B
:105670002521B0FBF1F201FB1201CA0801F0070578
:10568000A25C0123AB401A4201D0084670BDE188FC
:1056900041432046BDE87040C1F3074102F0DCBA47
:1056A00030B504461068206010790D4600F01F00E8
:1056B00020712046FFF7C0FFE08085EA1540208179
:1056C00030BD0A2801DA303003E00A38062802DA51
:1056D0004130C0B270473F20704770B50446C08E5D
:1056E00088B0002822D0258F94F83430A2268DF877
:1056F00000601A268DF80160A6890A46ADF80400FC
:10570000ADF8082004F11C01ADF80260ADF80650B8
:10571000ADF80A30102203A8FCF7DEFEA1891C2395
:105720006A46A06800F0A0F90020E08608B070BDCD
:1057300006481144006800F2FF30814203D901207D
:105740001860032070470020704700006C000020A4
:1057500070B500F059F8264D24486861D5F800016D
:10576000800742D5FDF784FC224CA068224920F432
:10577000F0400843A060206920F080002061A0690B
:1057800020F00040A061E06840F00400C4F80C0084
:10579000D5F800018007FBD4606900F0C04540F2F5
:1057A000C970804740F64D008047810504D440F41D
:1057B000007040F60131884740F25160804740F662
:1057C0000D0080470D4805436561206920F0784051
:1057D0002061BFF34F8F0A4801680A4A01F4E06173
:1057E00011430160BFF34F8FFEE770BD001F1F0024
:1057F000000010400020104000280080C7E8948A74
:105800000CED00E00400FA050948016841F470015C
:1058100001600848D0F8A81121F4C051C0F8A811BF
:10582000D0F82C1141F08001C0F82C117047000015
:1058300088ED00E00000104019B1884201D208460E
:105840007047002AFCD09042FAD9104670470000F9
:105850000249CA6D82430243CA6570470000114085
:1058600043688B4204D18068904201D10120704787
:1058700000207047F8B5144CA068806D28B96068A6
:105880002021426940209047A0616068006A8047FB
:1058900060610120009060684FF400652B46066946
:1058A00000220A490AA0B047E061A068806D002884
:1058B00008D1009060682B4600220669064907A0BF
:1058C000B0472062F8BD000000000020A92A0002B5
:1058D0006374726C000000005DF20102686F737403
:1058E0000000000010B508780C4648B10848007860
:1058F00000070AD50022BDE81040022004F04CBC8D
:1059000004F081FC00222146F5E7002010BD0000D4
:105910000000002070B50646401E1D460C460A28B1
:1059200009D220782968884205D10622211D68689D
:10593000FCF70BFE08B1002070BDC5E9026403202E
:1059400070BD00000248417A491C41727047000056
:10595000D400002010B5044603F0A8F8002011F090
:105960002FF911F0A7FF10F071FF08F02BFC0DF0DC
:1059700037F913F009FD17F08DFD002C03D0BDE8B9
:10598000104012F088BD10BD70B50446B0F1A53FBF
:105990001AD0B4F1C33F17D001234FF4A062052100
:1059A0001D2018F0A1FE0546B4F1F23F09D0922265
:1059B00006A10020FEF766FC2846BDE8704019F0FD
:1059C00005B807202870F7E770BD00006474626CAA
:1059D000652E630003484FF40031C1644FF4203159
:1059E0008164704700001140F8B505461B480E461B
:1059F0000021018011F0D8F91CF04EFC18F01CFEBB
:105A0000684611F013FA0446009842F254614FF4CC
:105A10007667884201D3012000E00020842210A193
:105A2000FEF730FC3A462146002018F071FE00983F
:105A300004F57661A0F5766082B2012018F068FE68
:105A40001CF092FB3046FFF785FF002D04D028465E
:105A5000BDE8F840FFF798BFF8BD0000C003002084
:105A6000647469702E63000030B4040003D0A4464F
:105A700030BC0420604730BC7047FEB51E46174658
:105A80000C46054602F018F9002816D0011D68469C
:105A9000FFF7C7FB0CE06846FFF7C9FB0189A1428D
:105AA00006D1D0F804C033463A4629460420E047E0
:105AB0006846FFF7A7FB0028EDD1FEBD1CB5A0226C
:105AC0008DF8002003228DF801208289ADF8022094
:105AD0008DF804108189806805236A46FFF7C4FFAA
:105AE0001CBD30B587B00446A3250A988DF8005038
:105AF00018258DF80150A589ADF80410ADF80620E1
:105B00000146ADF80250ADF8083010220DF10A0040
:105B1000FCF7E2FCA1891A236A46A068FFF7A4FFFC
:105B200007B030BD10B586B00446A1208DF8000046
:105B300016208DF80100A089ADF80410ADF8020020
:105B4000ADF806201022194602A8FCF7C5FCA18971
:105B500018236A46A068FFF787FF06B010BD000053
:105B60002DE9F05F002492468946054627462646E1
:105B700026E000BF05EB8400B0F9021035F92400DF
:105B800019F086FD834605EB8800B0F9021035F95F
:105B9000280019F07DFDABEB000043F6FF71884251
:105BA00003DBA0F5FE40FF3806E043F6FF71C84274
:105BB00002DC47F6FF710844074404EB4904761CF5
:105BC00004EB0908D045D5DB97FBF6F0BDE8F09F64
:105BD0002DE9F04342780446901C89B00E4681427C
:105BE00006D009B0EA48BDE8F043921CFDF7CCBBF3
:105BF0002178E8A0FDF7C8FB2078DFF8A8834FF0F4
:105C00000009122873D00CDC0E2811D004DC052802
:105C10006ED0082851D179E00F2833D010284CD10C
:105C200097E0132850D03E286FD0572845D18FE1F8
:105C3000D8F80000A278454690F86A10DAA0FDF77F
:105C4000A3FB6179E1A0FDF79FFB2968A07881F8AB
:105C50006A00E349B4F803000988884205D10020AE
:105C600003F08AFF296881F8F4902968B4F80300EA
:105C7000B1F89E10884218D12868026DAAB1416D12
:105C8000601D11E0D8F80020E178404682F86A10E3
:105C9000D8F80020A188B2F89E20914205D1016871
:105CA0000A6D12B1496D601C9047D8F80020A2F827
:105CB0009E90D8F80010C1F85090D8F8000090F8E5
:105CC0008000012878D04FE10325002719E0635BAD
:105CD000AD1C625B1846AD1C03F0CAFB48B190F8DE
:105CE000401091420AD3891A80F8401008E035E04C
:105CF00026E01946BBA0FDF747FB01E080F8409085
:105D00007F1CA078B842E2DCD7E733E0B4F8035058
:105D1000284603F0ADFB0028CFD0A17849B96179BE
:105D20000029816902D041F4004101E021F40041E1
:105D3000816100F00BFC0146284603F07DFCBCE7C6
:105D4000B4F8030003F094FB0028B6D00721417497
:105D5000B3E703F0B1FE03F0C3FEAEE7A07800287E
:105D6000ABD1B4F8030003F083FB0028A5D0617A1F
:105D70000174A2E7A07806287CD012DC012820D08C
:105D800004289AD1E078002875D1A08803F070FB30
:105D9000002870D0A17980F88910012180F888103E
:105DA0008BE70A280DD0122887D12079082884D2C1
:105DB000E178002972D000E0D2E098A0FDF7E4FA83
:105DC0007BE7E07800289FD1A7880A2F27D2D8F850
:105DD000000000EB8705686910B9FFF76CFA68618D
:105DE00005001CD0EF800220C5F81890A8742A4640
:105DF000934905F11C00FFF763FBFFF72DFB686378
:105E0000E0792872294604F1080019F0DBFB05202F
:105E10006874A0792874A0780A2804D012E0A088B9
:105E200000F090F949E7D4F80E10C5F88A10618A9D
:105E3000A5F88E106169C5F89010218B05F18000DE
:105E4000A5F89410E089A5F85200287C60B9D8F82C
:105E5000001091F86810E973D8F8000005F1090105
:105E600090F8680000F01CFA2846FFF7CFF80246C9
:105E7000E98801E013E070E072A0FDF785FA03F015
:105E8000B1FBD8F8000090F87600C00688D5E98804
:105E900040F6B832734803F021FC0EE72DE034F8E9
:105EA000037F384603F0E4FA05006088ADF814007B
:105EB000A088ADF81000E088ADF818002089ADF892
:105EC0001C00A4F10304ADD007AB06AA04A905A8E1
:105ED000FFF702FBBDF81800B5F85630B5F85420AE
:105EE000BDF81C108DE80F00BDF81030BDF814206F
:105EF00039465D4803F0F2FBDFE6B4F805201046B2
:105F000003F0B6FA0546217958A0FDF73DFA20794D
:105F1000D8F80020C0EBC001114491F8A910E97332
:105F200069B12179D8F80000C1EBC101014401F148
:105F30008000D1F8AA1045F8091FC08D06E0D8F8F6
:105F40000000C16D45F8091FB0F86000A880B4E6F4
:105F5000608803F08DFA00289FD109B0BDE8F08376
:105F6000B1B2204603F062FCB1B2204603F012FB4E
:105F70002078052806D1B4F8030003F079FA08B1B7
:105F800003F04CFF09B0BDE8F04303F011BE000080
:105F9000DC4F02024843493A4556454E543A2530B3
:105FA0003278000080300202434D445F434F4D5031
:105FB0004C45544520636D6473206F6C64202575D7
:105FC000202D206E6577202575000000636D645FCD
:105FD000636F6D7020737461747573202575000094
:105FE000683102026863695F6E756D6265725F6336
:105FF0006F6D706C657465645F7061636B65742050
:106000006C6973747320756E7573656420636F6E4D
:106010002068616E646C65202575000061647620DF
:10602000736574207465726D696E61742064756542
:1060300020746F20636175736520307825780A00BD
:10604000899400024E657720636F6E6E6563746994
:106050006F6E3A2068616E646C652025752C202572
:106060007300000070310202F83102026164762090
:1060700068616E646C6572203078257820636F6E7D
:106080006E656374656420746F20636F6E20686151
:106090006E646C6520307825780A000010B50446DF
:1060A00004F0AAF8204610BD13460A4601460148EE
:1060B00003F014BBA03202020246014803F00EBBFB
:1060C000A031020230B50C46054689B0194610468B
:1060D00000F064FA00280CD16946284619F060FAED
:1060E00004A9204619F05CFA04AA6946024803F0A4
:1060F000F5FA09B030BD0000D0310202014803F0CA
:10610000EDBA000098310202014803F0E7BA00003E
:1061100050320202014803F0E1BA0000B03202023C
:10612000014803F0DBBA00009031020208B5009389
:1061300013460A460146024803F0D0FA08BD0000A3
:10614000E430020210B5034603F092F940B1062193
:10615000417413221946054803F0C0FA002010BD0F
:106160000021184603F002FAF8E700005831020255
:1061700038B54FF0FF30ADF80200ADF8000006254D
:106180000DE0684603F0C4F90446407C062806D0BA
:10619000E1881322054803F0A1FA00B96574684646
:1061A00003F096F90028ECD138BD00005831020206
:1061B0002DE9FF4F85B0DFF89C80DDE912698A4642
:1061C0000A20002400EB06119B462746B8F8000081
:1061D00003AA03F02BF8050001D001210FE056209F
:1061E00009B0BDE8F08F00BF04EBC40219F812201B
:1061F000521E01FA02F03843641CC7B2E4B2B44242
:10620000F2D30798CDE9000B02975346D8F8041053
:106210002846059A03F023F9C7B200240DE000BF19
:1062200004EBC40109EB4101E8191022891CFCF7B9
:1062300053F91037641CFFB2E4B2B442F0D30649FC
:106240004046096881F868A02946039A03F0A0FD3A
:106250000020C5E7803202028030020210B500F053
:106260009DF9002804D1BDE81040024803F036BA79
:1062700010BD0000D83102020248006890F8A0006A
:1062800070470000803002020449096851F8E22F8B
:1062900002604A684260896881607047803002020B
:1062A000074A0028106804D050F8622F0A608088DE
:1062B00003E0C26D0A60B0F860008880704700009B
:1062C000803002020146014803F008BAC0310202E0
:1062D00003490968CA6D0260B1F860108180704797
:1062E0008030020210B50446014604A0FDF74CF8C8
:1062F000022C01D9012010BD002010BD6761705F24
:106300006D69746D5F70726F74656374696F6E5FD1
:1063100072657175697265645F666F725F736563DC
:1063200075726974795F6C6576656C2025750000FF
:106330007FB50DF1200C9CE870008DE878001346C5
:106340000A460146024803F0C9F904B070BD0000D6
:1063500088320202014803F0C1B900009032020203
:1063600013460A460146014803F0B8B9D430020288
:1063700013460A460146014803F0B0B9CC30020288
:106380001CB5049CCDE9003413460A460146024878
:1063900003F0A4F91CBD0000DC30020201460148F4
:1063A00003F09CB9983202020448817A012903D192
:1063B000022181721BF06AB870470000D4000020EF
:1063C000074810B5426C40F282210648FFF764F896
:1063D0000448FFF739F8BDE81040FFF7E5BF0000BB
:1063E000D40000207C07002010B50022074908488F
:1063F000FFF766F8074840F28221426C0448FFF735
:106400004BF8BDE810400248FFF71EB8C163000218
:106410007C070020D4000020014803F05FB9000091
:1064200088310202014803F059B90000BC30020271
:10643000014803F053B90000B83202020146014896
:1064400003F04CB9083202020146014803F046B994
:10645000C83102020146014803F040B9603102022E
:106460000146014803F03AB9783102020246014878
:1064700003F034B9A83102022DE9F0410E46074677
:1064800002F0F6FF050010D0384600F055F804463B
:106490000246314608A0FCF777FFB44207D32146F5
:1064A0003846BDE8F04103F0C7B80121F8E7AE7403
:1064B000BDE8F04103F07CBB6761705F7265717588
:1064C0006573745F73656375726974795F6C657603
:1064D000656C2025752C2063757272656E74206C56
:1064E0006576656C202575000146014803F0F6B815
:1064F0004832020213460A460146014803F0EEB84C
:10650000A832020213460A460146014803F0E6B8E3
:10651000F4300202F0B585B00DF1280C9CE8F000D3
:106520008DE8F80013460A460146024803F0D6F803
:1065300005B0F0BD0431020210B502F099FF18B1A8
:10654000BDE8104000F002B8012010BD10B1008B72
:10655000000401D4012070470220704702207047D8
:10656000074BC0EBC0021B681A440B6842F8AA3FF5
:106570008B8893800A460146024803F0AFB80000BA
:10658000803002022032020200B101200249096873
:1065900081F8A0007047000080300202034A1368AF
:1065A00098641068C16400207047000080300202C7
:1065B0000149096888657047803002021CB5049C57
:1065C000CDE9003413460A460146024803F086F836
:1065D0001CBD0000AC3002020A460146014803F02F
:1065E0007DB80000B43002022DE9FE4F124E17466E
:1065F000884681461D46308802AA591DDDF830A024
:1066000002F014FE040014D0CDE9007543464A465A
:10661000716802F024FFC0B220442A465146FBF7BD
:106620005BFF21463046029A03F0B2FB0020BDE832
:10663000FE8F5620FBE700009C3002022DE9FC474C
:10664000104D16460F4680469946288801AA311DEE
:1066500002F0ECFD040013D000963B464246696808
:1066600002F0FDFEC0B2204432464946FBF734FF3B
:1066700021462846019A03F08BFB0020BDE8FC87E9
:106680005620FBE7A430020204490268096841F879
:10669000E22F42684A60806888607047803002025A
:1066A0000A460146014803F019B800008C30020286
:1066B0002DE9FF5F144DDDE90E6B90468946824659
:1066C0001F46288803AA711D02F0B0FD040018D0EF
:1066D000CDF80080CDE901764B46524620466968E8
:1066E00002F0BDFEC0B2204432465946FBF7F4FE2C
:1066F00021462846039A03F04BFB002004B0BDE876
:10670000F09F5620FAE70000843002022DE9FF5F77
:10671000144DDDE90E6B9046894682461F46288857
:1067200003AAB11D02F082FD040018D0CDF800804C
:10673000CDE901764B4652462046696802F08FFE4D
:10674000C0B2204432465946FBF7C6FE21462846D1
:10675000039A03F01DFB002004B0BDE8F09F562013
:10676000FAE70000943002020AB944F2902213467C
:106770000A460146014802F0B1BF000000320202A1
:1067800013460A460146014802F0A8BF1032020231
:1067900008B50B46009202460021024800F06AF854
:1067A00008BD0000303202022DE9FC47184F884630
:1067B00091460446022101EB8801388801AA02F0C3
:1067C00035FD060007D043462246796802F047FEB1
:1067D000C5B2002413E05620BDE8FC8704EB44005A
:1067E00009EB40010A7900924B8819F810207019C2
:1067F00008A102F034FE2D1D641CEDB2E4B2444544
:10680000ECD331463846019A03F0C2FA0020E3E7A0
:1068100040320202313231002DE9F04F8DB01AAF13
:10682000DFF848C097E8604FDCF800C0C0EBC00755
:106830006744179C87F8A94008AF87E8004EDDF849
:1068400064C005AFCDF810C087E86001169E189DA2
:10685000CDE9003613460A4601460548CDE9024512
:1068600002F03CFF0DB0BDE8F08F00008030020266
:10687000283202022DE9FC471C460A9D174688462D
:106880008146F72B26D9F720CDE900050B460122DA
:106890003946484602F022FF002823D1F73CA4B233
:1068A000F73515E0F72C01D3F72600E02646A01BAC
:1068B000CDE900650404240C01D0002200E002228E
:1068C00043463946484602F009FF00280AD13544BC
:1068D000002CE7D14346032239464846CDE900451E
:1068E00002F0FCFEBDE8FC8708B5009313460A469B
:1068F0000146024802F0F2FE08BD000078320202B2
:106900002DE9FC4716460F46DFF88C8002EB860126
:10691000824699460024B8F8000001AAC91C02F07A
:1069200085FC050002D0002001220EE05620BDE8C3
:10693000FC8700BF00EB400319F813305B1E02FA1E
:1069400003F12143401CCCB2C0B2B042F2D3009458
:106950003B4652462846D8F8041002F080FDC7B2E4
:1069600000240FE004EB440109EB41008188009111
:1069700043884278E81909A102F071FD7F1D641C6B
:10698000FFB2E4B2B442EDD329464046019A03F087
:10699000FFF90020CBE700007032020231323200F2
:1069A00008B50B460092024600210248FFF762FF3D
:1069B00008BD0000383202020A460146014802F0D2
:1069C0008DBE0000B83102022DE9F843194F15467B
:1069D0000C468046F82923D90146F823012238467F
:1069E000009502F07BFE002821D1F83CA4B2F835D6
:1069F00014E0F82C01D3F82600E02646A01B04047E
:106A0000240C009501D0002200E0022233464146CA
:106A1000384602F063FE002809D13544002CE8D145
:106A20002346032241463846009502F057FEBDE852
:106A3000F8830000603202020A460146014802F073
:106A40004DBE00006832020208B5009313460A46A4
:106A50000146024802F042FE08BD00005832020220
:106A60000A460146014802F039BE0000C430020265
:106A70001CB5049CCDE9003413460A460146024881
:106A800002F02CFE1CBD000018320202054902680B
:106A9000096841F8622F82888A800146024802F024
:106AA0001DBE0000803002028031020202490968E6
:106AB00081F8690070470000803002022DE9FF4F25
:106AC00087B01C46DDE91A01DDE91865DDE91687A6
:106AD000DDE914A99346FFF761FD00280DD1CDE94A
:106AE000004ACDE90259CDF81080CDE90576DDE9FF
:106AF00007125B46024802F0F1FD0BB0BDE8F08FD3
:106B0000EC300202014802F0E9BD0000143102023B
:106B100008B5009313460A460146024802F0DEFD1E
:106B200008BD0000FC300202F0B587B00DF1300E58
:106B30009EE8F0108DE8F81013460A460146024818
:106B400002F0CCFD07B0F0BD0C3102022DE9FF418F
:106B50000D46DDE90A4780460C9E02F089FC0028BC
:106B600006D0007C38B129464046009404F0F5FC7C
:106B700004B0BDE8F08103968DE8980013462A46DC
:106B80004146024802F0AAFDF2E70000B0310202DD
:106B900008B59200921C0B4600920146072202485B
:106BA00002F09CFD08BD00001C3102022DE9F047F7
:106BB000DFF88CA48AB01E461546884604280AD001
:106BC00008287DD128781B280FD01D2808461FD003
:106BD00001F072F81EE02978782971D1DAF80040C6
:106BE000002C50D04146A0474DE0B5F801700C464E
:106BF000DE1E3946A720D21C18F07EFE0246F61C87
:106C00000AB0B3B239462046BDE8F047FEF735BFBB
:106C100018F05CFB040053D02978771E4FF001096F
:106C20000D2973D009DC0C2915D2DFE801F014EF2F
:106C3000143114EE14ED148614F0172967D006DC15
:106C40000F2978D0112952D0132904D167E11929CD
:106C500072D01D295CD0FBA0FCF795FB28788DF83D
:106C600008908DF80900002006218DF80A008DF8A3
:106C70000C108DF80B0000900190A089052302AA4A
:106C8000042104F047FE0AB0BDE8F04700F0CABC9A
:106C9000B5F8015004F032FB854200D22846E0826C
:106CA00084F81890DAF8005095B1AB208DF8000008
:106CB00004208DF80100A089ADF80200E08A00E010
:106CC000F7E1ADF804000623A1896A460420A8472D
:106CD0004046FEF7F3F8E64800788007D3D4E08A10
:106CE0000022001D81B2A089FFF73EFDCBE720788E
:106CF0000228C8D132462946204618F013FC69788C
:106D00002046711A294401224988A7E00FE13CE19D
:106D10004746B5F80180EA1C4146A820F61E18F047
:106D2000EBFDF61C0246B3B241463846FEF7A5FE1F
:106D300084F85190A7E76AE15BE120780C281BD02A
:106D400011DC062801D008289DD13246294620466C
:106D500018F09BFB3146284600F0B8FF014620465C
:106D60001BF0D0FE8FE7142833D024288BD16888FD
:106D7000A4F84C0025203AE195F80180B8F1070FFE
:106D800007D26888A085A8882086E88860860D20BC
:106D90002DE1022716E000BFE91935F807904A886F
:106DA00022868A886286C98801A81CF0A7F801A8F3
:106DB0000090638E228E49462046FEF792FE07EB36
:106DC000080087B2B742E7D369782046711A695A3A
:106DD00043E095F8018000210227A8F1020A0DE0A6
:106DE00035F80790EA191FFA8AF349462046921CA3
:106DF00018F03CFB07EB0800494687B2B742EFD3D7
:106E0000204613222AE002E035E04CE009E1207838
:106E10000E2814D0102824D028288BD1204600F02A
:106E20007DFA218F6A1CA92018F066FD02460837FA
:106E3000BBB2A189A068FEF717FE002135E101A9C8
:106E4000681C18F0ADFBA18D01AA00922046638E4C
:106E5000228EFEF746FEA18D20460B221BF072FE0D
:106E600011E7204600F05AFABBB2218F6A1C204677
:106E700018F0FCFAE1E74FF004094FF6FF7801271C
:106E800004F11C0A09E0E819E95B40885346804692
:106E900002462046FEF746FE4F44B742F3DB20464B
:106EA00041460322DAE768780427022800D1122736
:106EB000F01BB61E1FFA86F835F800A00026AD1CA0
:106EC00022E000BF35F80690042F05EB060021D024
:106ED00006A9801C18F064FBA4228DF8002014225F
:106EE0008DF80120A289ADF8022006A9ADF8049022
:106EF00010220DF10600FBF7EFFAA18916236A466E
:106F0000A068FEF7B1FD3E444645DBDB2046514616
:106F10000922A3E7418806A81BF0F0FFDCE72078F0
:106F2000182803D0262801D02C2899D1ACE0761E51
:106F30002078B6B2761DBFB2122815D02A288FD17C
:106F4000218F628F6B1CAA20009718F0E3FC0200CF
:106F500004D0B3B2A189A068FEF786FD3A46292184
:106F600020461BF0B7FD8EE6218F628F6B1CA6209A
:106F7000009718F0CFFC020004D0B3B2A189A0683A
:106F8000FEF772FD3A461121EAE720781A2812D05E
:106F90001C281CD02E2814D03228E4D1204600F022
:106FA000BDF932462946204603F078F900287FF4DF
:106FB00061AF7E2179E0B5F803001D2260871921B9
:106FC00010E0B5F803002F2260872D210AE0324639
:106FD0002946204603F062F940B1B5F803001D22AE
:106FE00060871B2120461BF09CFD4CE62120207071
:106FF00049E620781E2847D0202845D0222802D0F4
:107000003028B0D140E0204600F088F9D1E7207860
:107010001628A8D1BBB26A1C0021204618F026FA17
:1070200032E029790A292BD12078082830D021DCB8
:10703000022829D0042827D0062821D128E00000E2
:10704000600000204154542048616E646C65722CCD
:1070500020756E68616E646C656420726573706F14
:107060006E73652074797065203078253032780031
:107070005C0000200A2807D00C2805D014280CD06A
:10708000204600F0BEFAFEE5204600F047F9D4E6BF
:10709000E18D2046FEF721FBF6E7204600F03EF9A1
:1070A000A08D218E8842F2D10A212046FEF706FDEE
:1070B000E9E50AB0BDE8F08710B50446084618F0C7
:1070C0003FF918B1017819B1952010BD562010BDB7
:1070D0001F218460017000F0A5FA002010BD70B57A
:1070E00005461446084618F02BF918B1017819B175
:1070F000952070BD562070BD85606188A288914240
:1071000003D10021FEF7DAFC07E0491C8185A18844
:10711000C1850921017000F085FA002070BD2DE9BC
:10712000F04107461D4616460846DDF8188018F05F
:1071300007F9040004D0207820B19520BDE8F08143
:107140005620FBE7A760A685E585012084F850005E
:10715000002565831022414604F11C00FBF7BCF9B1
:10716000E5860720207000F05DFA0020E6E72DE9B3
:10717000F04107461D4616460846DDF8188018F00F
:10718000DFF8040004D0207820B19520BDE8F0811C
:107190005620FBE7A760A685E585012084F850000E
:1071A000A4F81A80414604F11C001BF0A7FE002041
:1071B000E0860720207000F035FA0020E6E770B581
:1071C00006461C461546084618F0BAF818B101786C
:1071D00019B1952070BD562070BD86608585C48527
:1071E000002180F85010C1860521017000F01AFAC4
:1071F000002070BD10B50446084618F0A1F818B17B
:10720000017819B1952010BD562010BD0121846070
:1072100081854FF6FF72C28501700021418300F025
:1072200001FA002010BD70B505461646084618F054
:1072300087F8040003D0207818B1952070BD56203F
:1072400070BD0120A560A0854FF6FF70E08500208D
:1072500060831022314604F11C00FBF73DF9032046
:10726000207000F0DFF9002070BD70B505461446AF
:10727000084618F065F818B1017819B1952070BD6D
:10728000562070BD0121856081854FF6FF71C18553
:10729000032100F81A1B214620F8024B1BF02EFE9A
:1072A00000F0C0F9002070BD10B50446084618F083
:1072B00047F818B1017819B1952010BD562010BDBE
:1072C0001D218460017000F0ADF9002010BD70B583
:1072D00006461C461546084618F032F818B10178E3
:1072E00019B1952070BD562070BD86608585C48516
:1072F0000B21017000F096F9002070BD00B50A4620
:1073000000F0DAFC10B1017E012903D017201080B3
:10731000952000BDC08A1080002000BD10B500215E
:1073200001700446818904A0FCF72DF804F1600087
:10733000BDE81040FEF792B84741545420636C6991
:10734000656E742074696D656F75742073746F70E9
:107350002C2068616E646C652030782530327800AE
:1073600070B5042817D11078052810D1B2F8035051
:10737000284600F0A1FC040009D01F2100F041F9CB
:107380000549002041F825002046FDF785FFBDE8AE
:10739000704000F047B970BDEC040020064910B5FC
:1073A00004484860084601F033FFBDE81040034838
:1073B000FCF7D4BF6173000264000020AD6B0002D3
:1073C00010B517F083FF002802D0007808B1002024
:1073D00010BD012010BD70B504460D46104600F0EA
:1073E0006BFC002807D0656023812146BDE8704012
:1073F000001DFDF7E3BE70BD2DE9F0410646DDE955
:1074000006781C461546084617F09AFF20B1017809
:1074100021B19520BDE8F0815620FBE78660058705
:10742000878744873121C0F84080017000F0FAF866
:107430000020EFE770B505461446084617F080FFB8
:1074400018B1017819B1952070BD562070BD8560C6
:1074500004872721017000F0E5F8002070BD0023AB
:10746000AFF3008070B506461C461546084617F077
:1074700067FF18B1017819B1952070BD562070BD15
:107480008660058744872921017000F0CBF8002031
:1074900070BD0023AFF3008070B506461C4615464C
:1074A000084617F04DFF18B1017819B1952070BD4D
:1074B000562070BD8660058744871121017000F059
:1074C000B1F8002070BD70B506461D46144608464A
:1074D00017F036FF18B1017819B1952070BD56200C
:1074E00070BD8660A0F8444015218564017000F0ED
:1074F00099F8002070BD70B505461446084617F08F
:107500001FFF18B1017819B1952070BD562070BDCC
:1075100085600487002141870F21017000F082F807
:10752000002070BD2DE9F04107461D46164608466D
:10753000DDF8188017F004FF040004D0207820B193
:107540009520BDE8F0815620FBE7A760A685E5857C
:1075500026866586002060831022414604F11C00C7
:10756000FAF7BAFF1320207000F05CF80020E8E77B
:107570002DE9F04107461D4616460846DDF81880FD
:1075800017F0DEFE040004D0207820B19520BDE87D
:10759000F0815620FBE7A760A685E58526866586EF
:1075A000A4F81A80414604F11C001BF0A7FC13202C
:1075B000207000F037F80020E9E70000014908607A
:1075C00070470000600000202DE9F04106461C468F
:1075D00015460846069F17F0B3FE20B1017821B189
:1075E0009520BDE8F0815620FBE7866005878487FB
:1075F000002141871B210764017000F013F800206F
:10760000EFE770B5044600780D46002808D0204604
:10761000FFF784FE29462046BDE87040FEF74EBACB
:1076200070BD00002DE9F04F002789B04FF01E0912
:107630004FF0040A4FF0020B3D464FF00808CE48C9
:1076400050F82740002C70D0A089FCF781FE40B193
:107650002278217EC9A0FBF796FE207E012864D106
:1076600005E0A08909B0BDE8F04FFCF774BE94F8BE
:10767000510050B184F85150A08901238DF8089031
:10768000009502AA042101958CE02078172801D0EA
:107690002B2818D1204617F0DCFBA18FC01E884292
:1076A00011DA204617F0D5FB0246A18FC1A0FBF7E7
:1076B0006AFE2046FFF732FE09B02046BDE8F04FD3
:1076C0000D21FEF7FBB9606D04F0D6FA064621786D
:1076D000C3A0FBF758FE2078362826D2DFE800F05A
:1076E0009E1B9E269E469E499E519E659E719E753E
:1076F0009E779E799EA39EB69EB89EBC9EBE9EC15E
:107700009EC39ECB9EED9ED39EDD9EE59EFE9EFC7F
:107710009EBA9EFB9EFA84F800B0E08D0090A38D87
:10772000A2894FF42051102048E077E084F800A0AF
:10773000608B4FF4205530B1ADF81C00E18D07AAE5
:107740008DE8060809E003A904F11C0017F028FFE2
:10775000E08D102203A98DE80700A38DA289294698
:107760000620FCF72BFF09B0BDE8F08F0620207043
:1077700001E084F8008009B02046BDE8F04F18F021
:107780001EB884F80080A689A18DE08D8DF808A030
:10779000ADF80910ADF80B000095052302AA0421ED
:1077A0003046019504F0B6F8DDE70C202070E08D3E
:1077B0000090A38DA28942F602010820FDF745F949
:1077C000D1E70E202070228E60E010205CE01220B5
:1077D00064E014202070618B204639B1C28D009284
:1077E000838DA2890820FDF730F917E000F11C0213
:1077F0008689818DE08D8DF80880ADF80910ADF88F
:107800000B000DF10D01104617F0CAFE009515236F
:1078100002AA04213046019504F07CF87F1C0A2F4F
:10782000FFF40DAF9FE716202070A089B4F8441034
:107830000E23A26C8DF808304FF6FF7303EA410166
:10784000CDE90021012302AA0421E5E718202DE05B
:107850001A2044E0322042E01C2040E084F80090EE
:1078600046E0202000E02220207009B02046BDE83C
:10787000F04F17F09FBF2420207009B02046BDE8CC
:10788000F04F17F0DCBF28202070228FA18909B0AB
:107890000A20BDE8F04FFDF7EDB82A20207009B0AE
:1078A0002046BDE8F04F17F0B5BF2C20207009B07E
:1078B0002046BDE8F04F17F0CDBF2620207004F120
:1078C0004E000090B4F84C20A18902231220FDF74D
:1078D00055FB48E727E011E008E0FFE72E20207085
:1078E00009B02046BDE8F04F17F079BF3020207076
:1078F00009B02046BDE8F04F17F06CBF18F06EFCE1
:1079000000288FD034202070B06D216C01AB009125
:10791000394A83E81500A38F228FD22106F148004F
:1079200018F066FC1FE736202070B16DB4F80C909B
:10793000228FB4F83C80D223276C8DF81030ADF83C
:107940001120059104F158000DF1140A06A917F051
:1079500036FE0C20CDE902A0CDE90078032304AA6D
:107960000421484604F01EF825702046FFF7D6FC97
:10797000B06D401CB065F6E6EC0400202D20686177
:107980006E646C655F7065726970686572616C5F6A
:107990006C6973742C206D74752073746174652028
:1079A00025752C20636C69656E7420737461746531
:1079B00020257500676174745F636C69656E745F20
:1079C00072756E3A2076616C7565206C656E202547
:1079D00075203E204D5455202575202D20330A005A
:1079E000676174745F636C69656E745F73746174EE
:1079F0006520257500000000AD4E00022DE9F0471E
:107A000007461D46164689460846DDF8208017F0D1
:107A10005DFC0446007850B9484619F09DF90146CE
:107A200060650AA0FBF7AFFC606D002802DA9520C4
:107A3000BDE8F087A7602687A5873320C4F840807B
:107A40002070FFF7EFFD0020F2E700006C655F6437
:107A500065766963655F6B6579206973203A307874
:107A600025780A0070B50A4E0546002456F8240011
:107A7000A84207D1A98907A0FBF785FC7F212846EA
:107A8000FFF7BFFD641CA4B20A2CEFD370BD000049
:107A9000EC0400204741545420636C69656E7420E7
:107AA00074696D656F75742068616E646C652C20F7
:107AB00068616E646C652030782530327800000093
:107AC0002DE9F04106461C4615460846069F17F06C
:107AD00037FC20B1017821B19520BDE8F081562016
